{
  "contractName": "TodoList",
  "abi": [
    {
      "inputs": [],
      "stateMutability": "nonpayable",
      "type": "constructor"
    },
    {
      "anonymous": false,
      "inputs": [
        {
          "indexed": false,
          "internalType": "uint256",
          "name": "id",
          "type": "uint256"
        },
        {
          "indexed": false,
          "internalType": "bool",
          "name": "completed",
          "type": "bool"
        }
      ],
      "name": "TaskCompleted",
      "type": "event"
    },
    {
      "anonymous": false,
      "inputs": [
        {
          "indexed": false,
          "internalType": "uint256",
          "name": "id",
          "type": "uint256"
        },
        {
          "indexed": false,
          "internalType": "string",
          "name": "content",
          "type": "string"
        },
        {
          "indexed": false,
          "internalType": "bool",
          "name": "completed",
          "type": "bool"
        }
      ],
      "name": "TaskCreated",
      "type": "event"
    },
    {
      "anonymous": false,
      "inputs": [
        {
          "indexed": false,
          "internalType": "uint256",
          "name": "id",
          "type": "uint256"
        }
      ],
      "name": "TaskDeleted",
      "type": "event"
    },
    {
      "anonymous": false,
      "inputs": [
        {
          "indexed": false,
          "internalType": "uint256",
          "name": "id",
          "type": "uint256"
        },
        {
          "indexed": false,
          "internalType": "string",
          "name": "content",
          "type": "string"
        },
        {
          "indexed": false,
          "internalType": "bool",
          "name": "completed",
          "type": "bool"
        }
      ],
      "name": "TaskUpdated",
      "type": "event"
    },
    {
      "inputs": [],
      "name": "taskCount",
      "outputs": [
        {
          "internalType": "uint256",
          "name": "",
          "type": "uint256"
        }
      ],
      "stateMutability": "view",
      "type": "function",
      "constant": true
    },
    {
      "inputs": [
        {
          "internalType": "uint256",
          "name": "",
          "type": "uint256"
        }
      ],
      "name": "tasks",
      "outputs": [
        {
          "internalType": "uint256",
          "name": "id",
          "type": "uint256"
        },
        {
          "internalType": "string",
          "name": "content",
          "type": "string"
        },
        {
          "internalType": "bool",
          "name": "completed",
          "type": "bool"
        }
      ],
      "stateMutability": "view",
      "type": "function",
      "constant": true
    },
    {
      "inputs": [
        {
          "internalType": "string",
          "name": "_content",
          "type": "string"
        }
      ],
      "name": "createTask",
      "outputs": [],
      "stateMutability": "nonpayable",
      "type": "function"
    },
    {
      "inputs": [
        {
          "internalType": "uint256",
          "name": "_id",
          "type": "uint256"
        }
      ],
      "name": "completeTask",
      "outputs": [],
      "stateMutability": "nonpayable",
      "type": "function"
    },
    {
      "inputs": [
        {
          "internalType": "uint256",
          "name": "_id",
          "type": "uint256"
        },
        {
          "internalType": "string",
          "name": "_content",
          "type": "string"
        }
      ],
      "name": "updateTask",
      "outputs": [],
      "stateMutability": "nonpayable",
      "type": "function"
    },
    {
      "inputs": [
        {
          "internalType": "uint256",
          "name": "_id",
          "type": "uint256"
        }
      ],
      "name": "deleteTask",
      "outputs": [],
      "stateMutability": "nonpayable",
      "type": "function"
    },
    {
      "inputs": [
        {
          "internalType": "uint256",
          "name": "_id",
          "type": "uint256"
        }
      ],
      "name": "getTask",
      "outputs": [
        {
          "internalType": "string",
          "name": "content",
          "type": "string"
        },
        {
          "internalType": "bool",
          "name": "completed",
          "type": "bool"
        }
      ],
      "stateMutability": "view",
      "type": "function",
      "constant": true
    }
  ],
  "bytecode": "0x60806040523480156200001157600080fd5b50620000586040518060400160405280600c81526020017f44656661756c74205461736b00000000000000000000000000000000000000008152506200005e60201b60201c565b620003ed565b60016000815480929190620000739062000330565b919050555060405180606001604052806001548152602001828152602001600015158152506000806001548152602001908152602001600020600082015181600001556020820151816001019080519060200190620000d49291906200013b565b5060408201518160020160006101000a81548160ff0219169083151502179055509050507f05d0fb833127fc08168556d0e7ca9554fc3f6bc843b3b7d2bf1c35aea6bab66060015482600060405162000130939291906200024e565b60405180910390a150565b8280546200014990620002fa565b90600052602060002090601f0160209004810192826200016d5760008555620001b9565b82601f106200018857805160ff1916838001178555620001b9565b82800160010185558215620001b9579182015b82811115620001b85782518255916020019190600101906200019b565b5b509050620001c89190620001cc565b5090565b5b80821115620001e7576000816000905550600101620001cd565b5090565b620001f681620002ae565b82525050565b6000620002098262000292565b6200021581856200029d565b935062000227818560208601620002c4565b6200023281620003dc565b840191505092915050565b6200024881620002ba565b82525050565b60006060820190506200026560008301866200023d565b8181036020830152620002798185620001fc565b90506200028a6040830184620001eb565b949350505050565b600081519050919050565b600082825260208201905092915050565b60008115159050919050565b6000819050919050565b60005b83811015620002e4578082015181840152602081019050620002c7565b83811115620002f4576000848401525b50505050565b600060028204905060018216806200031357607f821691505b602082108114156200032a5762000329620003ad565b5b50919050565b60006200033d82620002ba565b91507fffffffffffffffffffffffffffffffffffffffffffffffffffffffffffffffff8214156200037357620003726200037e565b5b600182019050919050565b7f4e487b7100000000000000000000000000000000000000000000000000000000600052601160045260246000fd5b7f4e487b7100000000000000000000000000000000000000000000000000000000600052602260045260246000fd5b6000601f19601f8301169050919050565b610c1f80620003fd6000396000f3fe608060405234801561001057600080fd5b506004361061007d5760003560e01c806386533f6c1161005b57806386533f6c146100eb5780638d97767214610107578063b6cb58a514610139578063e1e29558146101575761007d565b8063111002aa146100825780631d65e77e1461009e578063560f3192146100cf575b600080fd5b61009c600480360381019061009791906107bd565b610173565b005b6100b860048036038101906100b391906107fe565b61024a565b6040516100c6929190610912565b60405180910390f35b6100e960048036038101906100e491906107fe565b610339565b005b61010560048036038101906101009190610827565b610405565b005b610121600480360381019061011c91906107fe565b6104d6565b604051610130939291906109a6565b60405180910390f35b610141610595565b60405161014e9190610962565b60405180910390f35b610171600480360381019061016c91906107fe565b61059b565b005b6001600081548092919061018690610aeb565b9190505550604051806060016040528060015481526020018281526020016000151581525060008060015481526020019081526020016000206000820151816000015560208201518160010190805190602001906101e592919061065d565b5060408201518160020160006101000a81548160ff0219169083151502179055509050507f05d0fb833127fc08168556d0e7ca9554fc3f6bc843b3b7d2bf1c35aea6bab66060015482600060405161023f939291906109a6565b60405180910390a150565b60606000806000808581526020019081526020016000206040518060600160405290816000820154815260200160018201805461028690610ab9565b80601f01602080910402602001604051908101604052809291908181526020018280546102b290610ab9565b80156102ff5780601f106102d4576101008083540402835291602001916102ff565b820191906000526020600020905b8154815290600101906020018083116102e257829003601f168201915b505050505081526020016002820160009054906101000a900460ff1615151515815250509050806020015181604001519250925050915091565b60008111801561034b57506001548111155b61038a576040517f08c379a000000000000000000000000000000000000000000000000000000000815260040161038190610942565b60405180910390fd5b6000808281526020019081526020016000206000808201600090556001820160006103b591906106e3565b6002820160006101000a81549060ff021916905550507fd078b251d950cc55c44340be1db732337ef4939a76e1367ee271ad2cb19c46af816040516103fa9190610962565b60405180910390a150565b60008211801561041757506001548211155b610456576040517f08c379a000000000000000000000000000000000000000000000000000000000815260040161044d90610942565b60405180910390fd5b600080600084815260200190815260200160002090508181600101908051906020019061048492919061065d565b507f731243b94fd6f4071f6ac97a26cb4cff681428631c877c64cdea5371290b01c183838360020160009054906101000a900460ff166040516104c9939291906109a6565b60405180910390a1505050565b60006020528060005260406000206000915090508060000154908060010180546104ff90610ab9565b80601f016020809104026020016040519081016040528092919081815260200182805461052b90610ab9565b80156105785780601f1061054d57610100808354040283529160200191610578565b820191906000526020600020905b81548152906001019060200180831161055b57829003601f168201915b5050505050908060020160009054906101000a900460ff16905083565b60015481565b6000811180156105ad57506001548111155b6105ec576040517f08c379a00000000000000000000000000000000000000000000000000000000081526004016105e390610942565b60405180910390fd5b6000806000838152602001908152602001600020905060018160020160006101000a81548160ff0219169083151502179055507fe21fa966ca5cd02748c0752352d18c48165e61cb55b4c29cccf924b5a95fcff182600160405161065192919061097d565b60405180910390a15050565b82805461066990610ab9565b90600052602060002090601f01602090048101928261068b57600085556106d2565b82601f106106a457805160ff19168380011785556106d2565b828001600101855582156106d2579182015b828111156106d15782518255916020019190600101906106b6565b5b5090506106df9190610723565b5090565b5080546106ef90610ab9565b6000825580601f106107015750610720565b601f01602090049060005260206000209081019061071f9190610723565b5b50565b5b8082111561073c576000816000905550600101610724565b5090565b600061075361074e84610a15565b6109e4565b90508281526020810184848401111561076b57600080fd5b610776848285610a77565b509392505050565b600082601f83011261078f57600080fd5b813561079f848260208601610740565b91505092915050565b6000813590506107b781610bd2565b92915050565b6000602082840312156107cf57600080fd5b600082013567ffffffffffffffff8111156107e957600080fd5b6107f58482850161077e565b91505092915050565b60006020828403121561081057600080fd5b600061081e848285016107a8565b91505092915050565b6000806040838503121561083a57600080fd5b6000610848858286016107a8565b925050602083013567ffffffffffffffff81111561086557600080fd5b6108718582860161077e565b9150509250929050565b61088481610a61565b82525050565b600061089582610a45565b61089f8185610a50565b93506108af818560208601610a86565b6108b881610bc1565b840191505092915050565b60006108d0601783610a50565b91507f5461736b204944206973206f7574206f662072616e67650000000000000000006000830152602082019050919050565b61090c81610a6d565b82525050565b6000604082019050818103600083015261092c818561088a565b905061093b602083018461087b565b9392505050565b6000602082019050818103600083015261095b816108c3565b9050919050565b60006020820190506109776000830184610903565b92915050565b60006040820190506109926000830185610903565b61099f602083018461087b565b9392505050565b60006060820190506109bb6000830186610903565b81810360208301526109cd818561088a565b90506109dc604083018461087b565b949350505050565b6000604051905081810181811067ffffffffffffffff82111715610a0b57610a0a610b92565b5b8060405250919050565b600067ffffffffffffffff821115610a3057610a2f610b92565b5b601f19601f8301169050602081019050919050565b600081519050919050565b600082825260208201905092915050565b60008115159050919050565b6000819050919050565b82818337600083830152505050565b60005b83811015610aa4578082015181840152602081019050610a89565b83811115610ab3576000848401525b50505050565b60006002820490506001821680610ad157607f821691505b60208210811415610ae557610ae4610b63565b5b50919050565b6000610af682610a6d565b91507fffffffffffffffffffffffffffffffffffffffffffffffffffffffffffffffff821415610b2957610b28610b34565b5b600182019050919050565b7f4e487b7100000000000000000000000000000000000000000000000000000000600052601160045260246000fd5b7f4e487b7100000000000000000000000000000000000000000000000000000000600052602260045260246000fd5b7f4e487b7100000000000000000000000000000000000000000000000000000000600052604160045260246000fd5b6000601f19601f8301169050919050565b610bdb81610a6d565b8114610be657600080fd5b5056fea2646970667358221220b296981ae6f1f84058c1f162674f6fa0e832dab27a218328f53a61075f89ad9d64736f6c63430008000033",
  "immutableReferences": {},
  "source": "// SPDX-License-Identifier: MIT\npragma solidity >=0.4.0 <0.9.0;\n\ncontract TodoList {\n    struct Task {\n        uint id;\n        string content;\n        bool completed;\n    }\n\n    mapping(uint => Task) public tasks;\n    uint public taskCount;\n\n    event TaskCreated(uint id, string content, bool completed);\n    event TaskUpdated(uint id, string content, bool completed);\n    event TaskDeleted(uint id);\n    event TaskCompleted(uint id, bool completed);\n\n    constructor() {\n        createTask(\"Default Task\");\n    }\n\n    function createTask(string memory _content) public {\n        taskCount++;\n        tasks[taskCount] = Task(taskCount, _content, false);\n        emit TaskCreated(taskCount, _content, false);\n    }\n\n    function completeTask(uint _id) public {\n        require(_id > 0 && _id <= taskCount, \"Task ID is out of range\");\n        Task storage _task = tasks[_id];\n        _task.completed = true;\n        emit TaskCompleted(_id, true);\n    }\n\n    function updateTask(uint _id, string memory _content) public {\n        require(_id > 0 && _id <= taskCount, \"Task ID is out of range\");\n        Task storage _task = tasks[_id];\n        _task.content = _content;\n        emit TaskUpdated(_id, _content, _task.completed);\n    }\n\n    function deleteTask(uint _id) public {\n        require(_id > 0 && _id <= taskCount, \"Task ID is out of range\");\n        delete tasks[_id];\n        emit TaskDeleted(_id);\n    }\n\n    function getTask(uint _id) public view returns (string memory content, bool completed) {\n        Task memory _task = tasks[_id];\n        return (_task.content, _task.completed);\n    }\n}\n",
  "sourcePath": "C:\\Users\\PC\\Downloads\\todo_app_smartcontracts\\todo_app_smartcontracts\\todo-smartcontracts\\contracts\\TodoList.sol",
  "compiler": {
    "name": "solc",
    "version": "0.8.0+commit.c7dfd78e.Emscripten.clang"
  },
  "schemaVersion": "3.4.16",
  "updatedAt": "2024-06-18T14:25:51.545Z",
  "networkType": "ethereum",
  "devdoc": {
    "kind": "dev",
    "methods": {},
    "version": 1
  },
  "userdoc": {
    "kind": "user",
    "methods": {},
    "version": 1
  }
}